:100000001FC02EC066C02CC02BC02AC029C028C06B
:1000100027C026C025C089C023C022C021C020C05F
:100020001FC006010204080007FF060103050807B8
:10003000FF06010305080007FF060103050807FF87
:1000400011241FBECFE5D1E0DEBFCDBF20E0A0E68A
:10005000B0E001C01D92AE36B207E1F7A7D108C3E8
:10006000CFCF882349F0E7EAF1E63197F1F700C0F6
:100070000000A8958150F5CF08950F931F93CF935B
:10008000DF931F92CDB7DEB7042F182FC39A112329
:1000900049F0862F6983E5DFC398802FE2DF115096
:1000A0006981F4CF0F90DF91CF911F910F91089547
:1000B000CF93C82F4FE065E082958F70DEDF84E13B
:1000C000D0DF45E065E08C2F8F70D7DF84E1CF91E2
:1000D000C8CF1F920F920FB60F9211248F93809169
:1000E000640081111CC0CF9917C0809168008031D5
:1000F00050F4809167008B3030F4809165008F5F01
:100100008093650002C01092650010926800109202
:10011000670081E08093660082E0809364008F91A5
:100120000F900FBE0F901F90189578941F920F920A
:100130000FB60F9211248F939F93809160008F5F71
:100140008A3019F08093600027C01092600080917F
:100150006300882329F080916300815080936300BD
:10016000F89480916100909162000097A1F001974E
:100170009093620080936100892B49F480916A001A
:10018000811103C083E080936D00C39A04C088B3DB
:1001900098E0892788BB789486B3817090916C0031
:1001A000891769F080916B008F5F80936B008B30B3
:1001B00030F086B3817080936C0010926B0086B330
:1001C000827090916A00891769F0809169008F5F51
:1001D000809369008B3030F086B3827080936A0020
:1001E00010926900CF9908C0809168008F3F59F044
:1001F0008F5F8093680007C0809167008F3F19F080
:100200008F5F8093670080916400882319F081508C
:10021000809364009F918F910F900FBE0F901F905D
:100220001895CF93DF9361B780E090E0FCD165E053
:1002300081E090E0F8D161E084E090E0F4D164E8FE
:1002400073E082E090E001D2C0E0D0E0FE01EF5C1C
:10025000FF4F6491CE01805F9F4FE5D12196CF3053
:10026000D105A1F7C0E0D0E0FE01EE5DFF4F649143
:10027000CE0180599F4FD7D12196CF30D105A1F71C
:10028000DF91CF910895EF92FF920F931F93CF9339
:10029000DF9390916A00882339F020916C0021113E
:1002A00003C0992309F47BC0992319F0C0E7D0E07B
:1002B00002C0C0E1D0E0811115C08E01F12CC8014F
:1002C000A6D18F3F31F0F3940F5F1F4F20E6F2125B
:1002D000F6CFF394C29810926200109261001092CF
:1002E0006D000BC0C29A80916A00882311F082E0F1
:1002F00001C081E080936D00F12C84E0E82E3FE5A1
:100300003F1508F447C0CE018F0D911D80D181119A
:1003100002C0D89A3DC0813011F4D89839C08230DB
:1003200011F4D99A35C0833011F4D99831C0843092
:1003300011F4DA9A2DC0853011F4DA9829C086308C
:1003400011F4DB9A25C0873011F4DB9821C0883086
:1003500029F484E090E05BD184DE1AC08930D1F4C6
:1003600081E08F0D9E01280F311DC90158D1F394F2
:10037000F3948C010115110559F088B38E2588BBC3
:100380008AE06FDE88B38E2588BB01501109F2CF59
:10039000F394B5CF81E090E03AD180936300DF9190
:1003A000CF911F910F91FF90EF9008958FE08ABB3E
:1003B00090E896BD23E026BD80E285BF87B38C60C0
:1003C00087BBDF9A8BB380678BBB20BF8DE083BF79
:1003D00080E686BF81E089BF80E18BBF92BB80E071
:1003E00090E015D18F3F09F41CDF88E181BD8EE0DC
:1003F00081BD7894C3E0C15049F0C398C29A81E0AE
:1004000030DEC39AC29881E02CDEF5CF14E18895E6
:10041000A89580916300811196C080916D00811133
:1004200022C080916A00882319F081E02CDF8FC000
:1004300080916600811102C0CF9989C041E061E0DE
:1004400081E01BDE81E01FDFC398F89482E090E03A
:10045000E6D09093620080936100789410926700D8
:10046000109268006DC0833041F480916A00811160
:100470001EC080E008DFC39A6AC0F89480916100D2
:1004800090916200789420916D00213009F045C070
:10049000892B09F420E080916C0081110AC022238D
:1004A00031F0F8941092620010926100789481E02B
:1004B000E1CF80916A0081114AC080916600882353
:1004C00059F080916500811107C041E061E081E051
:1004D000D4DD80E0D8DE18C0CF990DC02223B9F159
:1004E00080916800873998F1F89410926200109218
:1004F000610078942CC080916800873950F080E0CA
:10050000C2DEC39A82E0ADDD1092660010926700F1
:100510001CC021111CC0C3981AC080916A008111AF
:100520000BC081E0B0DEF89482E090E078D0909348
:10053000620080936100789480916600882339F08E
:100540001092660004C010926600109268008091BC
:100550006500843008F45BCFF8941092620010922A
:1005600061007894C39A82E07CDD41E061E085E03F
:1005700084DD8AE076DD10936300C0E0D0E08091F6
:100580006300882381F08895A89580916600882370
:10059000B1F341E060E081E070DD109266002196E9
:1005A00010936300ECCF41E061E083E066DD2097CB
:1005B000A1F041E061E083E060DD84E152DD8D2F58
:1005C00077DD84E14EDD8C2F73DDCE016CE370E0CE
:1005D0000DD0BC0182E090E038D0109268001092FB
:1005E0006700109266001092650011CF0024552715
:1005F00004C0080E591F880F991F009729F076959F
:100600006795B8F37105B9F7802D952F0895E19995
:10061000FECF1FBA8EBBE09A99278DB30895A8E14B
:10062000B0E042E018C0262FE199FECF1FBA8EBB82
:10063000E09A81500DB2021639F01CBA2DBB0FB6EC
:10064000F894E29AE19A0FBE08950196272FECDF05
:10065000EACFDC01862FE82FE199FECF1FBA05C053
:10066000EEBBE09AE3950DB20D924150C8F70895A4
:04067000F894FFCF2C
:00000001FF
